{
  "contractName": "Marriage",
  "abi": [
    {
      "inputs": [],
      "payable": false,
      "stateMutability": "nonpayable",
      "type": "constructor"
    },
    {
      "constant": true,
      "inputs": [],
      "name": "id",
      "outputs": [
        {
          "internalType": "uint256",
          "name": "",
          "type": "uint256"
        }
      ],
      "payable": false,
      "stateMutability": "view",
      "type": "function"
    },
    {
      "constant": true,
      "inputs": [],
      "name": "name",
      "outputs": [
        {
          "internalType": "string",
          "name": "",
          "type": "string"
        }
      ],
      "payable": false,
      "stateMutability": "view",
      "type": "function"
    },
    {
      "constant": true,
      "inputs": [
        {
          "internalType": "uint256",
          "name": "",
          "type": "uint256"
        }
      ],
      "name": "weddings",
      "outputs": [
        {
          "internalType": "string",
          "name": "name1",
          "type": "string"
        },
        {
          "internalType": "string",
          "name": "name2",
          "type": "string"
        },
        {
          "internalType": "string",
          "name": "link1",
          "type": "string"
        },
        {
          "internalType": "string",
          "name": "link2",
          "type": "string"
        },
        {
          "internalType": "address",
          "name": "wedding_sender",
          "type": "address"
        }
      ],
      "payable": false,
      "stateMutability": "view",
      "type": "function"
    },
    {
      "constant": false,
      "inputs": [
        {
          "internalType": "string",
          "name": "_name1",
          "type": "string"
        },
        {
          "internalType": "string",
          "name": "_name2",
          "type": "string"
        },
        {
          "internalType": "string",
          "name": "_link1",
          "type": "string"
        },
        {
          "internalType": "string",
          "name": "_link2",
          "type": "string"
        }
      ],
      "name": "addWedding",
      "outputs": [],
      "payable": false,
      "stateMutability": "nonpayable",
      "type": "function"
    },
    {
      "constant": true,
      "inputs": [
        {
          "internalType": "uint256",
          "name": "_id",
          "type": "uint256"
        }
      ],
      "name": "getWedding",
      "outputs": [
        {
          "internalType": "string",
          "name": "",
          "type": "string"
        },
        {
          "internalType": "string",
          "name": "",
          "type": "string"
        },
        {
          "internalType": "string",
          "name": "",
          "type": "string"
        },
        {
          "internalType": "string",
          "name": "",
          "type": "string"
        },
        {
          "internalType": "address",
          "name": "",
          "type": "address"
        }
      ],
      "payable": false,
      "stateMutability": "view",
      "type": "function"
    },
    {
      "constant": true,
      "inputs": [],
      "name": "getNextId",
      "outputs": [
        {
          "internalType": "uint256",
          "name": "",
          "type": "uint256"
        }
      ],
      "payable": false,
      "stateMutability": "view",
      "type": "function"
    },
    {
      "constant": false,
      "inputs": [
        {
          "internalType": "uint256",
          "name": "_id",
          "type": "uint256"
        }
      ],
      "name": "divorce",
      "outputs": [
        {
          "internalType": "uint256",
          "name": "",
          "type": "uint256"
        }
      ],
      "payable": false,
      "stateMutability": "nonpayable",
      "type": "function"
    },
    {
      "constant": true,
      "inputs": [
        {
          "internalType": "uint256",
          "name": "_id",
          "type": "uint256"
        }
      ],
      "name": "checkIdExists",
      "outputs": [
        {
          "internalType": "bool",
          "name": "",
          "type": "bool"
        }
      ],
      "payable": false,
      "stateMutability": "view",
      "type": "function"
    }
  ],
  "bytecode": "0x60806040526040518060400160405280600881526020017f4d61727269616765000000000000000000000000000000000000000000000000815250600090805190602001906200005192919062000071565b503480156200005f57600080fd5b5063034fb5e360018190555062000120565b828054600181600116156101000203166002900490600052602060002090601f016020900481019282601f10620000b457805160ff1916838001178555620000e5565b82800160010185558215620000e5579182015b82811115620000e4578251825591602001919060010190620000c7565b5b509050620000f49190620000f8565b5090565b6200011d91905b8082111562000119576000816000905550600101620000ff565b5090565b90565b6116c480620001306000396000f3fe608060405234801561001057600080fd5b50600436106100885760003560e01c80637f3130b21161005b5780637f3130b2146105f4578063af640d0f14610812578063b49a5bb214610830578063bc9683261461087257610088565b806306fdde031461008d5780634fe00c9614610110578063565bf0371461032e5780635a470aeb14610374575b600080fd5b610095610890565b6040518080602001828103825283818151815260200191508051906020019080838360005b838110156100d55780820151818401526020810190506100ba565b50505050905090810190601f1680156101025780820380516001836020036101000a031916815260200191505b509250505060405180910390f35b61013c6004803603602081101561012657600080fd5b810190808035906020019092919050505061092e565b60405180806020018060200180602001806020018673ffffffffffffffffffffffffffffffffffffffff1673ffffffffffffffffffffffffffffffffffffffff16815260200185810385528a818151815260200191508051906020019080838360005b838110156101ba57808201518184015260208101905061019f565b50505050905090810190601f1680156101e75780820380516001836020036101000a031916815260200191505b50858103845289818151815260200191508051906020019080838360005b83811015610220578082015181840152602081019050610205565b50505050905090810190601f16801561024d5780820380516001836020036101000a031916815260200191505b50858103835288818151815260200191508051906020019080838360005b8381101561028657808201518184015260208101905061026b565b50505050905090810190601f1680156102b35780820380516001836020036101000a031916815260200191505b50858103825287818151815260200191508051906020019080838360005b838110156102ec5780820151818401526020810190506102d1565b50505050905090810190601f1680156103195780820380516001836020036101000a031916815260200191505b50995050505050505050505060405180910390f35b61035a6004803603602081101561034457600080fd5b8101908080359060200190929190505050610be4565b604051808215151515815260200191505060405180910390f35b6105f26004803603608081101561038a57600080fd5b81019080803590602001906401000000008111156103a757600080fd5b8201836020820111156103b957600080fd5b803590602001918460018302840111640100000000831117156103db57600080fd5b91908080601f016020809104026020016040519081016040528093929190818152602001838380828437600081840152601f19601f8201169050808301925050505050505091929192908035906020019064010000000081111561043e57600080fd5b82018360208201111561045057600080fd5b8035906020019184600183028401116401000000008311171561047257600080fd5b91908080601f016020809104026020016040519081016040528093929190818152602001838380828437600081840152601f19601f820116905080830192505050505050509192919290803590602001906401000000008111156104d557600080fd5b8201836020820111156104e757600080fd5b8035906020019184600183028401116401000000008311171561050957600080fd5b91908080601f016020809104026020016040519081016040528093929190818152602001838380828437600081840152601f19601f8201169050808301925050505050505091929192908035906020019064010000000081111561056c57600080fd5b82018360208201111561057e57600080fd5b803590602001918460018302840111640100000000831117156105a057600080fd5b91908080601f016020809104026020016040519081016040528093929190818152602001838380828437600081840152601f19601f820116905080830192505050505050509192919290505050610f0f565b005b6106206004803603602081101561060a57600080fd5b81019080803590602001909291905050506110d1565b60405180806020018060200180602001806020018673ffffffffffffffffffffffffffffffffffffffff1673ffffffffffffffffffffffffffffffffffffffff16815260200185810385528a818151815260200191508051906020019080838360005b8381101561069e578082015181840152602081019050610683565b50505050905090810190601f1680156106cb5780820380516001836020036101000a031916815260200191505b50858103845289818151815260200191508051906020019080838360005b838110156107045780820151818401526020810190506106e9565b50505050905090810190601f1680156107315780820380516001836020036101000a031916815260200191505b50858103835288818151815260200191508051906020019080838360005b8381101561076a57808201518184015260208101905061074f565b50505050905090810190601f1680156107975780820380516001836020036101000a031916815260200191505b50858103825287818151815260200191508051906020019080838360005b838110156107d05780820151818401526020810190506107b5565b50505050905090810190601f1680156107fd5780820380516001836020036101000a031916815260200191505b50995050505050505050505060405180910390f35b61081a6113eb565b6040518082815260200191505060405180910390f35b61085c6004803603602081101561084657600080fd5b81019080803590602001909291905050506113f1565b6040518082815260200191505060405180910390f35b61087a61152f565b6040518082815260200191505060405180910390f35b60008054600181600116156101000203166002900480601f0160208091040260200160405190810160405280929190818152602001828054600181600116156101000203166002900480156109265780601f106108fb57610100808354040283529160200191610926565b820191906000526020600020905b81548152906001019060200180831161090957829003601f168201915b505050505081565b6002602052806000526040600020600091509050806000018054600181600116156101000203166002900480601f0160208091040260200160405190810160405280929190818152602001828054600181600116156101000203166002900480156109da5780601f106109af576101008083540402835291602001916109da565b820191906000526020600020905b8154815290600101906020018083116109bd57829003601f168201915b505050505090806001018054600181600116156101000203166002900480601f016020809104026020016040519081016040528092919081815260200182805460018160011615610100020316600290048015610a785780601f10610a4d57610100808354040283529160200191610a78565b820191906000526020600020905b815481529060010190602001808311610a5b57829003601f168201915b505050505090806002018054600181600116156101000203166002900480601f016020809104026020016040519081016040528092919081815260200182805460018160011615610100020316600290048015610b165780601f10610aeb57610100808354040283529160200191610b16565b820191906000526020600020905b815481529060010190602001808311610af957829003601f168201915b505050505090806003018054600181600116156101000203166002900480601f016020809104026020016040519081016040528092919081815260200182805460018160011615610100020316600290048015610bb45780601f10610b8957610100808354040283529160200191610bb4565b820191906000526020600020905b815481529060010190602001808311610b9757829003601f168201915b5050505050908060040160009054906101000a900473ffffffffffffffffffffffffffffffffffffffff16905085565b6000610bee611539565b600260008481526020019081526020016000206040518060a0016040529081600082018054600181600116156101000203166002900480601f016020809104026020016040519081016040528092919081815260200182805460018160011615610100020316600290048015610ca55780601f10610c7a57610100808354040283529160200191610ca5565b820191906000526020600020905b815481529060010190602001808311610c8857829003601f168201915b50505050508152602001600182018054600181600116156101000203166002900480601f016020809104026020016040519081016040528092919081815260200182805460018160011615610100020316600290048015610d475780601f10610d1c57610100808354040283529160200191610d47565b820191906000526020600020905b815481529060010190602001808311610d2a57829003601f168201915b50505050508152602001600282018054600181600116156101000203166002900480601f016020809104026020016040519081016040528092919081815260200182805460018160011615610100020316600290048015610de95780601f10610dbe57610100808354040283529160200191610de9565b820191906000526020600020905b815481529060010190602001808311610dcc57829003601f168201915b50505050508152602001600382018054600181600116156101000203166002900480601f016020809104026020016040519081016040528092919081815260200182805460018160011615610100020316600290048015610e8b5780601f10610e6057610100808354040283529160200191610e8b565b820191906000526020600020905b815481529060010190602001808311610e6e57829003601f168201915b505050505081526020016004820160009054906101000a900473ffffffffffffffffffffffffffffffffffffffff1673ffffffffffffffffffffffffffffffffffffffff1673ffffffffffffffffffffffffffffffffffffffff1681525050905060008160000151511415610f04576000915050610f0a565b60019150505b919050565b60008451118015610f21575060008451115b8015610f2e575060008251115b8015610f3b575060008151115b610fad576040517f08c379a00000000000000000000000000000000000000000000000000000000081526004018080602001828103825260138152602001807f4e616d65732063616e7420626520656d7074790000000000000000000000000081525060200191505060405180910390fd5b6040518060a001604052808581526020018481526020018381526020018281526020013373ffffffffffffffffffffffffffffffffffffffff168152506002600060016000815480929190600101919050558152602001908152602001600020600082015181600001908051906020019061102992919061157e565b50602082015181600101908051906020019061104692919061157e565b50604082015181600201908051906020019061106392919061157e565b50606082015181600301908051906020019061108092919061157e565b5060808201518160040160006101000a81548173ffffffffffffffffffffffffffffffffffffffff021916908373ffffffffffffffffffffffffffffffffffffffff16021790555090505050505050565b6060806060806000600260008781526020019081526020016000206000016002600088815260200190815260200160002060010160026000898152602001908152602001600020600201600260008a8152602001908152602001600020600301600260008b815260200190815260200160002060040160009054906101000a900473ffffffffffffffffffffffffffffffffffffffff16848054600181600116156101000203166002900480601f0160208091040260200160405190810160405280929190818152602001828054600181600116156101000203166002900480156111fd5780601f106111d2576101008083540402835291602001916111fd565b820191906000526020600020905b8154815290600101906020018083116111e057829003601f168201915b50505050509450838054600181600116156101000203166002900480601f0160208091040260200160405190810160405280929190818152602001828054600181600116156101000203166002900480156112995780601f1061126e57610100808354040283529160200191611299565b820191906000526020600020905b81548152906001019060200180831161127c57829003601f168201915b50505050509350828054600181600116156101000203166002900480601f0160208091040260200160405190810160405280929190818152602001828054600181600116156101000203166002900480156113355780601f1061130a57610100808354040283529160200191611335565b820191906000526020600020905b81548152906001019060200180831161131857829003601f168201915b50505050509250818054600181600116156101000203166002900480601f0160208091040260200160405190810160405280929190818152602001828054600181600116156101000203166002900480156113d15780601f106113a6576101008083540402835291602001916113d1565b820191906000526020600020905b8154815290600101906020018083116113b457829003601f168201915b505050505091509450945094509450945091939590929450565b60015481565b60006002600083815260200190815260200160002060040160009054906101000a900473ffffffffffffffffffffffffffffffffffffffff1673ffffffffffffffffffffffffffffffffffffffff163373ffffffffffffffffffffffffffffffffffffffff16146114ad576040517f08c379a000000000000000000000000000000000000000000000000000000000815260040180806020018281038252602481526020018061166c6024913960400191505060405180910390fd5b60026000838152602001908152602001600020600080820160006114d191906115fe565b6001820160006114e191906115fe565b6002820160006114f191906115fe565b60038201600061150191906115fe565b6004820160006101000a81549073ffffffffffffffffffffffffffffffffffffffff02191690555050919050565b6000600154905090565b6040518060a0016040528060608152602001606081526020016060815260200160608152602001600073ffffffffffffffffffffffffffffffffffffffff1681525090565b828054600181600116156101000203166002900490600052602060002090601f016020900481019282601f106115bf57805160ff19168380011785556115ed565b828001600101855582156115ed579182015b828111156115ec5782518255916020019190600101906115d1565b5b5090506115fa9190611646565b5090565b50805460018160011615610100020316600290046000825580601f106116245750611643565b601f0160209004906000526020600020908101906116429190611646565b5b50565b61166891905b8082111561166457600081600090555060010161164c565b5090565b9056fe4f6e6c79207468652077656464696e6720616464726573732063616e206469766f726365a265627a7a72315820d036a2c74c458c3ad15390ca62b77a29fafd04faafe0a5b59fa3788bae81d8c064736f6c63430005100032",
  "source": "pragma solidity ^0.5.0;\r\n\r\ncontract Marriage {\r\n    // VARS\r\n    string public name = \"Marriage\";\r\n    uint256 public id;\r\n    mapping(uint256 => wedding) public weddings;\r\n\r\n    constructor() public {\r\n        id = 55555555;\r\n    }\r\n\r\n    struct wedding {\r\n        string name1;\r\n        string name2;\r\n        string link1;\r\n        string link2;\r\n        address wedding_sender;\r\n    }\r\n\r\n    function addWedding(\r\n        string memory _name1,\r\n        string memory _name2,\r\n        string memory _link1,\r\n        string memory _link2\r\n    ) public {\r\n        require(\r\n            (bytes(_name1).length > 0) &&\r\n                (bytes(_name1).length > 0) &&\r\n                (bytes(_link1).length > 0) &&\r\n                (bytes(_link2).length > 0),\r\n            \"Names cant be empty\"\r\n        );\r\n        weddings[id++] = wedding(_name1, _name2, _link1, _link2, msg.sender);\r\n    }\r\n\r\n    function getWedding(uint256 _id)\r\n        public\r\n        view\r\n        returns (\r\n            string memory,\r\n            string memory,\r\n            string memory,\r\n            string memory,\r\n            address\r\n        )\r\n    {\r\n        return (\r\n            weddings[_id].name1,\r\n            weddings[_id].name2,\r\n            weddings[_id].link1,\r\n            weddings[_id].link2,\r\n            weddings[_id].wedding_sender\r\n        );\r\n    }\r\n\r\n    function getNextId() public view returns (uint256) {\r\n        return id;\r\n    }\r\n\r\n    function divorce(uint256 _id) public returns (uint256) {\r\n        require(\r\n            msg.sender == weddings[_id].wedding_sender,\r\n            \"Only the wedding address can divorce\"\r\n        );\r\n        delete weddings[_id];\r\n    }\r\n\r\n    function checkIdExists(uint256 _id) public view returns (bool) {\r\n        wedding memory w = weddings[_id];\r\n        if (bytes(w.name1).length == 0) return false;\r\n        return true;\r\n    }\r\n}\r\n",
  "sourcePath": "C:/Users/Daniel/Desktop/MRG/src/contracts/Marriage.sol",
  "compiler": {
    "name": "solc",
    "version": "0.5.16+commit.9c3226ce.Emscripten.clang"
  },
  "schemaVersion": "3.4.1",
  "updatedAt": "2021-07-24T14:17:37.818Z",
  "networkType": "ethereum",
  "devdoc": {
    "methods": {}
  },
  "userdoc": {
    "methods": {}
  }
}